S01500004652325F70726F6A6563745F352E737265635B
S113000049C0000064C0000062C0000060C000007D
S11300105EC000005CC000005AC0000058C0000070
S113002056C0000054C0000052C0000050C0000080
S11300304EC000004CC000004AC0000048C0000090
S113004027C4000044C00000A5C4000040C0000054
S11300503EC000003CC000003AC0000038C00000B0
S113006036C0000034C0000032C0000030C00000C0
S11300702EC000002CC000002AC0000028C00000D0
S113008026C0000024C0000022C0000020C00000E0
S11300901EC0000011241FBECFEFD0E1DEBFCDBFD4
S11300A011E0A0E0B1E0ECE4F0E100E00BBF02C03D
S11300B007900D92AE31B107D9F721E0AEE1B1E07E
S11300C001C01D92AA36B207E1F708D3BDC798CF85
S11300D082E08093D80090E29093DB0091E09093CB
S11300E0DE008093E20084E08093E30083E1809368
S11300F0E40080E020C0982F9295907F9093ED00CB
S11301001092EE001092EF001092F0001092F100A5
S11301101092F2001092F3001092F4001092F50085
S11301201092F6001092F7001092F9001092F80065
S11301301092FA008F5F8F30F0F2EBEDF0E08081E7
S11301408068808308950F938295807F8093ED006B
S11301501092EE008FEF8093F4008093F50080936B
S1130160F6008093F700222359F1842F880F880F1B
S1130170880F8093F000DB01CA01689414F8B695E7
S1130180A795979587951694D1F78093F100DB0195
S1130190CA01072E7DE0B695A795979587957A9520
S11301A0D1F7702D8093F200032E35E17695679593
S11301B0579547953A95D1F7302D4093F30010C0E9
S11301C0842F8295880F807E8093F200689412F8C1
S11301D076956795579547951694D1F74093F30014
S11301E080E1289F90011124202B20682093EF00A8
S11301F00F910895EF92FF920F938295807F8093E1
S1130200ED001092EE00222359F1842F880F880FFD
S1130210880F8093F000DB01CA01689414F8B69546
S1130220A795979587951694D1F78093F100DB01F4
S1130230CA01072E7DE0B695A795979587957A957F
S1130240D1F7702D8093F200032E35E176956795F2
S1130250579547953A95D1F7302D4093F30010C048
S1130260842F8295880F807E8093F200689412F820
S113027076956795579547951694D1F74093F30073
S1130280EFEEF0E0808190E1299F90011124282B6A
S1130290208380E007C0F701E80FF11D908190935F
S11302A0FA008F5F8017B8F300640093EF000F919A
S11302B0FF90EF9008958FEF81B98AB914B887E061
S11302C085B9089542B181E090E09C010090190144
S11302D002C0220F331F0A94E2F7242B22B92BB158
S11302E00090190102C0880F991F0A94E2F7822B2B
S11302F08BB980911901815080931901089520913F
S11303001801283050F432B181E090E002C0880F27
S1130310991F2A95E2F7832B82B9809118018830BE
S113032019F482B18F7082B920911801283050F4E9
S11303303BB181E090E002C0880F991F2A95E2F753
S1130340832B8BB980911801883019F48BB18F708D
S11303508BB980911801893019F483E080931801D6
S1130360809118018F5F809318010895C8DFAACF88
S11303700895EF92FF920F9380911F018F3019F42B
S113038010921F0103C08F5F80931F0140911F01D2
S113039080E1489FB001112490913801492F50E029
S11303A0440F551F440F551F440F551F9091390199
S11303B0292F30E0220F331F220F331F90913C016D
S11303C0892F90E0880F991F462B242B822B909124
S11303D03A01892B809344010F2EF4E4EF2EF1E0CF
S11303E0FF2EF02D01E020E04DEF51E060E070E0E1
S11303F080E000DF0F91FF90EF900895EF92FF925D
S11304000F93109261010F2EF1E6EF2EF1E0FF2E13
S1130410F02D01E020E040E051E060E070E082E097
S1130420E9DE0F91FF90EF900895EF92FF920F9302
S11304301F93CF93E2E6F1E08481E12CF12CF0925A
S11304403501E0923401082F02950F70202F30E01F
S113045095819F7368E070E002C0660F771F9A95DC
S1130460E2F78B010223132310933301009332012B
S1130470C781C295C695C695C370C093310160E02B
S113048070E070933701609336018295869587708A
S11304908093300180E090E0C1D32091100130912D
S11304A01101409112015091130105D52AE037ED55
S11304B043EA54E4E2D260932A0170932B018093BF
S11304C02C0190932D01B70180E090E0A7D32091F7
S11304D00401309105014091060150910701EBD4CC
S11304E06093240170932501809326019093270142
S11304F0B80180E090E092D3209100013091010195
S11305004091020150910301D6D42DEC3CEC4CEC0B
S113051051E4B3D2609320017093210180932201AE
S11305209093230180912F01833019F410922F01AD
S113053003C08F5F80932F0180912F01C8135EDF6A
S113054080912E01873019F410922E0103C08F5F21
S113055080932E019091300180912E0198134EDFEB
S113056010921E01CF911F910F91FF90EF9008956B
S113057012B81BB883E08093190184E080931801BA
S11305800895CF92DF92EF92FF92C0902A01D0900B
S11305902B01E0902C01F0902D01E894F7F82091C4
S11305A01401309115014091160150911701C701B2
S11305B0B601E6D318165CF480912901811107C0B5
S11305C080912801853019F08F5F809328018091F4
S11305D02801853019F481E08093290120E030E07E
S11305E040EA50E4C701B601ADD288234CF48091AF
S11305F02901882329F010922901BADF10922801D9
S1130600FF90EF90DF90CF900895CF92DF92EF921A
S1130610FF9280E090E01AC09C012F5F3F4FF901E8
S1130620EE0FFF1FEE0FFF1FE35BFE4F4081518172
S113063062817381880F991F880F991FFC01E35B06
S1130640FE4F4083518362837383C90184309105D3
S11306501CF32091200130912101409122015091FD
S113066023016091240170912501809126019091CC
S1130670270193D3EDE4F1E0608B718B828B938B34
S11306802081318142815381F8D12DEC3CEC4CE442
S11306905EE35CD26B017C0120910C0130910D0171
S11306A040910E0150910F016BD3181694F42091D0
S11306B008013091090140910A0150910B01C701D1
S11306C0B60140D288232CF481E0809339018093D1
S11306D03801FF90EF90DF90CF900895ECDDC5D105
S11306E0F7DC08E020E042E250E060E070E080E007
S11306F02ADD05E020E041E150E060E070E081E0C7
S113070022DD789480914101882331F080911E018B
S113071081118BDE1092410180914001882309F4FC
S113072086C027DE72DF2DDF18990DC080913C0151
S1130730811109C080911C01823329F481E08093E6
S11307403C0110921C01189B0EC080913C01813029
S113075051F480911C01823331F410923C0108DF82
S113076088E280931C0119991DC080913B0181117D
S113077019C080911B018530A9F480913901811140
S113078004C081E08093390102C010923901809144
S11307903801811110923801EBDE10921B0181E0C7
S11307A080933B01199B0DC080913B01813049F43A
S11307B080911B01853029F4DBDE10921B0110921D
S11307C03B011A990DC080913A01811109C08091B1
S11307D01A01823329F481E080933A0110921A01BC
S11307E01A9B0EC080913A01813051F480911A0114
S11307F0823331F4BDDE10923A0188E280931A010B
S113080080911C01823318F48F5F80931C018091C6
S11308101B01853018F48F5F80931B0180911A01AE
S1130820823318F48F5F80931A01109240018091F3
S11308303F01882301F180913C01882349F0809194
S11308403901811105C080911A01823309F43ADD1E
S11308508091390181118ADD80913A01882349F020
S113086080913901811105C080911C01823309F402
S113087046DD10923F0180913E01811110923E01AC
S113088080913D01882309F43DCF10923D013ACF78
S11308901F920F920FB60F9211242F933F934F93F1
S11308A05F936F937F938F939F93AF93BF93409185
S11308B04201509143014F5F5F4F50934301409376
S11308C0420181E0809341019A01ADECBCECADD3CF
S11308D096958795969587959C01220F331F220F35
S11308E0331F820F931F4817590719F481E080932F
S11308F040019A01A9E8B8E898D39695879596950A
S11309008795969587956FE0689F9001699F300D54
S113091011244217530719F481E080933F019A018F
S1130920A3E8BDE282D3969587959695879596958B
S113093087956DE2689F9001699F300D11244217DD
S1130940530719F481E080933E019A013695279567
S113095036952795ABE7B4E168D39695879564E619
S1130960689F9001699F300D11244217530719F4B1
S113097081E080933D01BF91AF919F918F917F91D1
S11309806F915F914F913F912F910F900FBE0F90F8
S11309901F9018951F920F920FB60F9211240BB649
S11309A00F920F932F933F934F935F936F937F9384
S11309B08F939F93AF93BF93EF93FF931092ED00A8
S11309C08091EE0085FF0FC02091EF002F7080E032
S11309D008C0E82FF0E09091FA00EE59FE4F9083A2
S11309E08F5F8217B0F381E08093ED008091EE0079
S11309F085FF0FC02091EF002F7080E008C0E82F22
S1130A00F0E09091FA00EB5BFE4F90838F5F8217CA
S1130A10B0F3EEEEF0E080818F7D808381E08093FF
S1130A201E0108E020E042E250E060E070E080E077
S1130A308ADB05E020E041E150E060E070E081E025
S1130A4082DBFF91EF91BF91AF919F918F917F9145
S1130A506F915F914F913F912F910F910F900BBE2A
S1130A600F900FBE0F901F9018958DE084BD8DE4FC
S1130A7087BD82E080936E0008955058BB27AA2753
S1130A800ED044C135D130F03AD120F031F49F3F3B
S1130A9011F41EF42AC10EF4E095E7FB20C1E92FFE
S1130AA046D180F3BA17620773078407950718F0D5
S1130AB071F49EF55EC10EF4E0950B2EBA2FA02DB5
S1130AC00B01B90190010C01CA01A0011124FF27F7
S1130AD0591B99F0593F50F4503E68F11A16F040F2
S1130AE0A22F232F342F4427585FF3CF46953795F1
S1130AF02795A795F0405395C9F77EF41F16BA0BB6
S1130B00620B730B840BBAF09150A1F0FF0FBB1F63
S1130B10661F771F881FC2F70EC0BA0F621F731FAC
S1130B20841F48F4879577956795B795F7959E3F09
S1130B3008F0B3CF9395880F08F09927EE0F979597
S1130B4087950895A8D008F481E008950CD0DEC0FC
S1130B50D6D040F0CDD030F021F45F3F19F0BFC0C3
S1130B60511108C1C2C0E3D098F39923C9F35523A6
S1130B70B1F3951B550BBB27AA276217730784078C
S1130B8038F09F5F5F4F220F331F441FAA1FA9F342
S1130B9033D00E2E3AF0E0E830D091505040E69534
S1130BA0001CCAF729D0FE2F27D0660F771F881F95
S1130BB0BB1F261737074807AB07B0E809F0BB0B84
S1130BC0802DBF01FF2793585F4F2AF09E3F5105A8
S1130BD068F085C0CFC05F3FECF3983EDCF38695A8
S1130BE077956795B795F7959F5FC9F7880F911D1E
S1130BF09695879597F90895E1E0660F771F881F0A
S1130C00BB1F621773078407BA0720F0621B730BBC
S1130C10840BBA0BEE1F88F7E0950895E89409C099
S1130C2097FB3EF490958095709561957F4F8F4F1B
S1130C309F4F9923A9F0F92F96E9BB279395F69531
S1130C40879577956795B795F111F8CFFAF4BB0FAF
S1130C5011F460FF1BC06F5F7F4F8F4F9F4F16C013
S1130C60882311F096E911C0772321F09EE8872F9D
S1130C70762F05C0662371F096E8862F70E060E059
S1130C802AF09A95660F771F881FDAF7880F9695D2
S1130C90879597F90895990F0008550FAA0BE0E876
S1130CA0FEEF16161706E807F907C0F0121613062A
S1130CB0E407F50798F0621B730B840B950B39F46A
S1130CC00A2661F0232B242B252B21F408950A26D0
S1130CD009F4A140A6958FEF811D811D089597F910
S1130CE09F6780E870E060E008959FEF80EC0895CE
S1130CF000240A94161617061806090608950024F7
S1130D000A9412161306140605060895092E039470
S1130D10000C11F4882352F0BB0F40F4BF2B11F4E4
S1130D2060FF04C06F5F7F4F8F4F9F4F089557FD43
S1130D309058440F551F59F05F3F71F04795880F45
S1130D4097FB991F61F09F3F79F0879508951216DC
S1130D5013061406551FF2CF4695F1DF08C0161688
S1130D6017061806991FF1CF869571056105089439
S1130D700895E894BB2766277727CB0197F9089550
S1130D808ADF08F48FEF0895B3DF19F0B8DF09F0B4
S1130D90ACCFA5CFB901CA0133C19F775F77C7DF55
S1130DA098F39923B9F35523B9F3FF27951758F40A
S1130DB0E52FE91BED3070F75E3B10F0F1E41CC049
S1130DC09034E0F40AC0E92FE51BED3028F79E3B90
S1130DD010F0F1E411C0503488F4F9EA88232AF0C1
S1130DE09A95660F771F881FDAF744232AF05A95DD
S1130DF0220F331F441FDAF79F1B5F1BFF931F93C0
S1130E000F93FF92EF9279018A01BB27AB2F9B01CD
S1130E10AC015FD09701A801BF937B018C01AA2785
S1130E20BA2FB901CA0155D0AF919701A801EF902B
S1130E30FF900F911F9133DE69DFA4D04F9140FFE3
S1130E400895552747FD509502C049CFD9C077DF93
S1130E50E8F39923D9F3940F511DBBF391505040FB
S1130E6094F059F0882332F0660F771F881F915051
S1130E705040C1F79E3F510544F7880F911D969548
S1130E80879597F908955F3FACF0983E9CF0BB2797
S1130E90869577956795B79508F4B1609395C1F7F2
S1130EA0BB0F58F711F460FFE8CF6F5F7F4F8F4F90
S1130EB09F4FE3CF5FCF0BD029CF1ADF28F01FDF7E
S1130EC018F0952309F00BCF10CF112453CF2FDF47
S1130ED0A0F3959FD1F3950F50E0551F629FF00149
S1130EE0729FBB27F00DB11D639FAA27F00DB11DA2
S1130EF0AA1F649F6627B00DA11D661F829F22272B
S1130F00B00DA11D621F739FB00DA11D621F839FB1
S1130F10A00D611D221F749F3327A00D611D231F87
S1130F20849F600D211D822F762F6A2F11249F57D5
S1130F3050408AF0E1F088234AF0EE0FFF1FBB1FF8
S1130F40661F771F881F91505040A9F79E3F510597
S1130F5070F0C5CE0FCF5F3FECF3983EDCF386957F
S1130F6077956795B795F795E7959F5FC1F7FE2B42
S1130F70880F911D9695879597F9089511F40EF4AD
S1130F80B4CE3EC0DCDED0F39923D9F3CEF39F5721
S1130F90550B87FF43D00024A0E640EA9001805817
S1130FA05695979528F4805C660F771F881F20F06C
S1130FB026173707480730F4621B730B840B20296C
S1130FC031294A2BA69517940794202531254A27C1
S1130FD058F7660F771F881F20F026173707480732
S1130FE030F4620B730B840B200D311D411DA09551
S1130FF081F7B901842F9158880F969587950895A4
S11310009F3F31F0915020F4879577956795B79578
S1131010880F911D9695879597F9089591505040A2
S1131020660F771F881FD2F70895A29FB001B39F60
S1131030C001A39F700D811D1124911DB29F700DDD
S10F1040811D1124911D0895F894FFCF28
S113104CCDCC4C3DCDCCCC3D000020410000E0404B
S111105C0AD7233D0000A041040332053200F0
S9030000FC
