:1000000049C0000064C0000062C0000060C0000081
:100010005EC000005CC000005AC0000058C0000074
:1000200056C0000054C0000052C0000050C0000084
:100030004EC000004CC000004AC0000048C0000094
:100040003DC3000044C00000BBC3000040C000002E
:100050003EC000003CC000003AC0000038C00000B4
:1000600036C0000034C0000032C0000030C00000C4
:100070002EC000002CC000002AC0000028C00000D4
:1000800026C0000024C0000022C0000020C00000E4
:100090001EC0000011241FBECFEFD0E1DEBFCDBFD8
:1000A00011E0A0E0B1E0EAE0FDE000E00BBF02C03B
:1000B00007900D92A231B107D9F721E0A2E1B1E09A
:1000C00001C01D92A238B207E1F72BD21CC698CF0F
:1000D00082E08093D80090E29093DB0091E09093CF
:1000E000DE008093E20084E08093E30083E180936C
:1000F000E40080E020C0982F9295907F9093ED00CF
:100100001092EE001092EF001092F0001092F100A9
:100110001092F2001092F3001092F4001092F50089
:100120001092F6001092F7001092F9001092F80069
:100130001092FA008F5F8F30F0F2EBEDF0E08081EB
:100140008068808308950F938295807F8093ED006F
:100150001092EE008FEF8093F4008093F50080936F
:10016000F6008093F700222359F1842F880F880F1F
:10017000880F8093F000DB01CA01689414F8B695EB
:10018000A795979587951694D1F78093F100DB0199
:10019000CA01072E7DE0B695A795979587957A9524
:1001A000D1F7702D8093F200032E35E17695679597
:1001B000579547953A95D1F7302D4093F30010C0ED
:1001C000842F8295880F807E8093F200689412F8C5
:1001D00076956795579547951694D1F74093F30018
:1001E00080E1289F90011124202B20682093EF00AC
:1001F0000F9108958FEF81B98AB914B887E085B956
:10020000089520910D01222354F032B181E090E055
:1002100002C0880F991F2A95E2F7832B82B980913B
:100220000D018F3F19F482B1807F82B920910D01B9
:10023000222354F03BB181E090E002C0880F991F67
:100240002A95E2F7832B8BB980910D018F3F19F42A
:100250008BB1807F8BB980910D018E3F19F484E0C2
:1002600080930D0180910D01815080930D010895BF
:1002700020910C01283050F432B181E090E002C0AE
:10028000880F991F2A95E2F7832B82B980910C0180
:10029000883019F482B18F7082B920910C01283016
:1002A00050F43BB181E090E002C0880F991F2A957D
:1002B000E2F7832B8BB980910C01883019F48BB154
:1002C0008F708BB980910C01893019F483E0809391
:1002D0000C0180910C018F5F80930C010895C8DFA1
:1002E00090CF0895CF92DF92EF92FF920F931F93DA
:1002F00010926601109267011092680110926901D4
:1003000084E090E029C0AC01415051099A01220FCC
:10031000331F220F331FF901EF5AFE4FC080D180E7
:10032000E280F380880F991F880F991FFC01EF5A14
:10033000FE4FC082D182E282F382F901E35CFE4F7C
:100340000081118122813381FC01E35CFE4F008337
:10035000118322833383CA0118161906A4F210925E
:1003600051011092520110925301109254011092B7
:100370003D0110923E0110923F01109240011F91E9
:100380000F91FF90EF90DF90CF90089512B81BB8B7
:1003900083E080930D0184E080930C011092190199
:1003A000109217010895CF92DF92EF92FF92CF93B0
:1003B000DF93C0E0D0E04BC0FE01EE0FFF1FEE0F59
:1003C000FF1FEA59FE4FC080D180E280F38020E019
:1003D00030E040EA51E4C701B60133D31816E4F423
:1003E000FE013197EE0FFF1FEE0FFF1FEA59FE4F80
:1003F000608171818281938120E030E040EA51E4A4
:1004000020D318164CF480911501811105C08091FC
:1004100014018F5F8093140180911401843028F0BF
:1004200081E0809315011092140120E030E0A901D1
:10043000C701B6018DD2811109C0809115018823B1
:1004400029F010921501A2DF109214012196C530F7
:10045000D1050CF4B1CFDF91CF91FF90EF90DF90F9
:10046000CF900895CF92DF92EF92FF920F931F9358
:10047000CF93DF9300E010E047C0E801CC0FDD1F11
:10048000CC0FDD1FFE01E35CFE4F208131814281F4
:100490005381FE01EF5AFE4F608171818281938109
:1004A000DDD29B01AC01CF5DDE4F688379838A8307
:1004B0009B830F5F1F4FF801EE0FFF1FEE0FFF1F13
:1004C000EF5DFE4F6081718182819381DCD16B0190
:1004D0007C01209108013091090140910A0150915D
:1004E0000B01AFD2181684F420910401309105015C
:1004F0004091060150910701C701B60129D2882316
:100500001CF481E080931601053011050CF4B5CF81
:10051000DF91CF911F910F91FF90EF90DF90CF90DF
:10052000089568DEA8D1D4DD409100015091010109
:10053000609102017091030108E02091130180E0B5
:1005400002DE789480911E01811110921E0180912B
:100550001D01882309F481C0C5DE84DF24DF1899DA
:100560000DC080911901811109C080911001823361
:1005700029F481E08093190110921001189B0EC09C
:1005800080911901813051F480911001823331F44E
:1005900010921901FBDE88E280931001199918C0AE
:1005A00080911801811114C080910F01853081F470
:1005B00080911601811104C081E08093160102C070
:1005C00010921601E3DE10920F0181E08093180172
:1005D000199B0DC080911801813049F480910F0161
:1005E000853029F4D3DE10920F01109218011A9968
:1005F0000DC080911701811109C080910E018233D5
:1006000029F481E08093170110920E011A9B0EC00D
:1006100080911701813051F480910E01823331F4C1
:10062000B5DE1092170188E280930E0180911001CF
:10063000823318F48F5F8093100180910F01853011
:1006400018F48F5F80930F0180910E01823318F4AC
:100650008F5F80930E0110921D0180911C018823F1
:1006600001F180911901882349F0809116018111CF
:1006700005C080910E01823309F4C3DD809116011B
:1006800081112DDE80911701882349F08091160198
:10069000811105C080911001823309F4E9DD1092C7
:1006A0001C0180911B01811110921B0180911A0184
:1006B000882309F447CF10921A0144CF1F920F925A
:1006C0000FB60F9211242F933F934F935F936F9325
:1006D0007F938F939F93AF93BF9340911F0150914E
:1006E00020014F5F5F4F5093200140931F0181E035
:1006F00080931E019A01ADECBCECF6D296958795DD
:10070000969587959C01220F331F220F331F820F6E
:10071000931F4817590719F481E080931D019A012E
:10072000A9E8B8E8E1D2969587959695879596952C
:1007300087956FE0689F9001699F300D11244217E3
:10074000530719F481E080931C019A01A3E8BDE2EC
:10075000CBD29695879596958795969587956DE2D8
:10076000689F9001699F300D11244217530719F4B7
:1007700081E080931B019A01369527953695279540
:10078000ABE7B4E1B1D29695879564E6689F900196
:10079000699F300D11244217530719F481E08093AB
:1007A0001A01BF91AF919F918F917F916F915F914E
:1007B0004F913F912F910F900FBE0F901F90189562
:1007C0001F920F920FB60F9211240BB60F920F9338
:1007D0002F933F934F935F936F937F938F939F9349
:1007E000AF93BF93CF93EF93FF931092ED0080915F
:1007F000EE0085FF22C0C091EF00CF7080E008C0FE
:10080000E82FF0E09091FA00E658FE4F90838F5F5A
:100810008C17B0F3EEEEF0E080818F7D8083409105
:10082000000150910101609102017091030108E003
:100830002091130180E087DC01C0C0E0C093650116
:1008400081E08093120182B1805882B9FF91EF91CB
:10085000CF91BF91AF919F918F917F916F915F9158
:100860004F913F912F910F910F900BBE0F900FBEA4
:100870000F901F9018958DE084BD8DE487BD82E0B8
:1008800080936E0008955058BB27AA270ED09FC0B2
:1008900090D030F095D020F031F49F3F11F41EF449
:1008A00085C00EF4E095E7FB7BC0E92FA1D080F373
:1008B000BA17620773078407950718F071F49EF55D
:1008C000B9C00EF4E0950B2EBA2FA02D0B01B90183
:1008D00090010C01CA01A0011124FF27591B99F0B6
:1008E000593F50F4503E68F11A16F040A22F232FC2
:1008F000342F4427585FF3CF469537952795A79512
:10090000F0405395C9F77EF41F16BA0B620B730BB8
:10091000840BBAF09150A1F0FF0FBB1F661F771F29
:10092000881FC2F70EC0BA0F621F731F841F48F4DE
:10093000879577956795B795F7959E3F08F0B3CF64
:100940009395880F08F09927EE0F9795879508954E
:1009500003D008F481E00895990F0008550FAA0B01
:10096000E0E8FEEF16161706E807F907C0F01216C2
:100970001306E407F50798F0621B730B840B950BC5
:1009800039F40A2661F0232B242B252B21F408951A
:100990000A2609F4A140A6958FEF811D811D0895B7
:1009A00097F99F6780E870E060E008959FEF80EC22
:1009B000089500240A9416161706180609060895C5
:1009C00000240A9412161306140605060895092E2B
:1009D0000394000C11F4882352F0BB0F40F4BF2B9A
:1009E00011F460FF04C06F5F7F4F8F4F9F4F0895DA
:1009F00057FD9058440F551F59F05F3F71F04795D0
:100A0000880F97FB991F61F09F3F79F087950895B4
:100A1000121613061406551FF2CF4695F1DF08C0D3
:100A2000161617061806991FF1CF869571056105F0
:100A300008940895E894BB2766277727CB0197F998
:100A400008958ADF08F48FEF0895B3DF19F0B8DF57
:100A500009F0ACCFA5CFB901CA0131C19F775F774B
:100A6000C7DF98F39923B9F35523B9F3FF279517F7
:100A700058F4E52FE91BED3070F75E3B10F0F1E420
:100A80001CC09034E0F40AC0E92FE51BED3028F7D4
:100A90009E3B10F0F1E411C0503488F4F9EA882349
:100AA0002AF09A95660F771F881FDAF744232AF0F9
:100AB0005A95220F331F441FDAF79F1B5F1BFF93CA
:100AC0001F930F93FF92EF9279018A01BB27AB2FFF
:100AD0009B01AC015DD09701A801BF937B018C0104
:100AE000AA27BA2FB901CA0153D0AF919701A80123
:100AF000EF90FF900F911F91D8DE69DFA2D04F9148
:100B000040FF0895552747FD509502C049CFD7C0F3
:100B100077DFE8F39923D9F3940F511DBBF391507C
:100B2000504094F059F0882332F0660F771F881FE9
:100B300091505040C1F79E3F510544F7880F911DD9
:100B40009695879597F908955F3FACF0983E9CF095
:100B5000BB27869577956795B79508F4B16093950F
:100B6000C1F7BB0F58F711F460FFE8CF6F5F7F4FFD
:100B70008F4F9F4FE3CF5FCF1CDF28F021DF18F0AE
:100B8000952309F00DCF12CF112455CF31DFA0F3FB
:100B9000959FD1F3950F50E0551F629FF001729F12
:100BA000BB27F00DB11D639FAA27F00DB11DAA1F31
:100BB000649F6627B00DA11D661F829F2227B00D7E
:100BC000A11D621F739FB00DA11D621F839FA00D09
:100BD000611D221F749F3327A00D611D231F849F59
:100BE000600D211D822F762F6A2F11249F575040B0
:100BF0008AF0E1F088234AF0EE0FFF1FBB1F661F4B
:100C0000771F881F91505040A9F79E3F510570F003
:100C1000C7CE11CF5F3FECF3983EDCF38695779516
:100C20006795B795F795E7959F5FC1F7FE2B880FFE
:100C3000911D9695879597F9089511F40EF4B6CE07
:100C40003EC0DEDED0F39923D9F3CEF39F57550B88
:100C500087FF43D00024A0E640EA900180585695D3
:100C6000979528F4805C660F771F881F20F0261761
:100C70003707480730F4621B730B840B2029312996
:100C80004A2BA69517940794202531254A2758F713
:100C9000660F771F881F20F026173707480730F4A4
:100CA000620B730B840B200D311D411DA09581F744
:100CB000B901842F9158880F9695879508959F3F85
:100CC00031F0915020F4879577956795B795880F07
:100CD000911D9695879597F9089591505040660F0C
:100CE000771F881FD2F70895A29FB001B39FC0015C
:100CF000A39F700D811D1124911DB29F700D811D48
:0A0D00001124911D0895F894FFCF0F
:100D0A0011000000000020410000E0400403320509
:020D1A003200A5
:00000001FF
