:1000000049C0000064C0000062C0000060C0000081
:100010005EC000005CC000005AC0000058C0000074
:1000200056C0000054C0000052C0000050C0000084
:100030004EC000004CC000004AC0000048C0000094
:10004000C6C1000044C0000042C0000040C0000023
:100050003EC000003CC000003AC0000038C00000B4
:1000600036C0000034C0000032C0000030C00000C4
:100070002EC000002CC000002AC0000028C00000D4
:1000800026C0000024C0000022C0000020C00000E4
:100090001EC0000011241FBECFEFD0E1DEBFCDBFD8
:1000A00011E0A0E0B1E0E4E0F5E000E00BBF02C049
:1000B00007900D92A630B107D9F721E0A6E0B1E094
:1000C00001C01D92A231B207E1F77AD019C298CFD0
:1000D0008FEF81B98AB914B887E085B90895209166
:1000E0000101222354F032B181E090E002C0880F78
:1000F000991F2A95E2F7832B82B9809101018F3FE6
:1001000019F482B1807F82B920910101222354F039
:100110003BB181E090E002C0880F991F2A95E2F779
:10012000832B8BB9809101018F3F19F48BB1807FB4
:100130008BB9809101018E3F19F484E08093010115
:100140008091010181508093010108952091000167
:10015000283050F432B181E090E002C0880F991F3E
:100160002A95E2F7832B82B980910001883019F437
:1001700082B18F7082B920910001283050F43BB1D8
:1001800081E090E002C0880F991F2A95E2F7832B47
:100190008BB980910001883019F48BB18F708BB9C5
:1001A00080910001893019F483E0809300018091EF
:1001B00000018F5F809300010895C8DF90CF0895FC
:1001C00087DF87D1789480910F01811110920F0100
:1001D00080910E01882309F49AC018990DC080916E
:1001E0000A01811109C080910401823329F481E060
:1001F00080930A0110920401189B15C080910A0196
:10020000813089F480910401823369F410920A01EB
:1002100012B81BB883E08093010184E08093000151
:1002200088E28093040119991FC08091090181110E
:100230001BC0809103018530B9F4809106018111C2
:1002400004C081E08093060102C01092060112B83A
:100250001BB883E08093010184E080930001109239
:10026000030181E080930901199B14C08091090169
:10027000813081F480910301853061F412B81BB89C
:1002800083E08093010184E08093000110920301D8
:10029000109209011A990DC080910801811109C0BD
:1002A00080910201823329F481E080930801109249
:1002B00002011A9B15C080910801813089F4809158
:1002C0000201823369F412B81BB883E08093010104
:1002D00084E0809300011092080188E2809302017B
:1002E00080910401823318F48F5F80930401809120
:1002F0000301853018F48F5F809303018091020120
:10030000823318F48F5F8093020110920E01809166
:100310000D01882301F180910A01882349F0809121
:100320000601811105C080910201823309F4D7DEF4
:1003300080910601811141DF80910801882349F0F5
:1003400080910601811105C080910401823309F476
:10035000FDDE10920D0180910C018823C9F080917F
:100360000A01811108C080910901811104C08091A6
:100370000801882329F0809107018F5F809307018E
:1003800080910701813011F41092070110920C0145
:1003900080910B01882309F416CF80910A01811105
:1003A00008C080910901811104C08091080188234F
:1003B00029F0809107018F5F8093070180910701E9
:1003C000813011F41092070110920B01FCCE1F92A4
:1003D0000F920FB60F9211242F933F934F935F9379
:1003E0006F937F938F939F93AF93BF93409110012F
:1003F000509111014F5F5F4F5093110140931001D5
:1004000081E080930F019A01ADECBCEC6AD0969527
:100410008795969587959C01220F331F220F331FD6
:10042000820F931F4817590719F481E080930E013A
:100430009A01A9E8B8E855D096958795969587953D
:10044000969587956FE0689F9001699F300D112404
:100450004217530719F481E080930D019A01A3E834
:10046000BDE23FD096958795969587959695879509
:100470006DE2689F9001699F300D11244217530768
:1004800019F481E080930C019A01369527953695F1
:100490002795ABE7B4E125D09695879564E6689FEC
:1004A0009001699F300D11244217530719F481E020
:1004B00080930B01BF91AF919F918F917F916F912D
:1004C0005F914F913F912F910F900FBE0F901F9012
:1004D00018958DE084BD8DE487BD82E080936E0029
:1004E0000895A29FB001B39FC001A39F700D811D0D
:1004F0001124911DB29F700D811D1124911D08952D
:04050000F894FFCF9D
:0605040004033205320081
:00000001FF
