S01500004652325F70726F6A6563745F352E737265635B
S113000049C0000064C0000062C0000060C000007D
S11300105EC000005CC000005AC0000058C0000070
S113002056C0000054C0000052C0000050C0000080
S11300304EC000004CC000004AC0000048C0000090
S113004082C1000044C0000042C0000040C0000063
S11300503EC000003CC000003AC0000038C00000B0
S113006036C0000034C0000032C0000030C00000C0
S11300702EC000002CC000002AC0000028C00000D0
S113008026C0000024C0000022C0000020C00000E0
S11300901EC0000011241FBECFEFD0E1DEBFCDBFD4
S11300A011E0A0E0B1E0E2E8F4E000E00BBF02C040
S11300B007900D92A630B107D9F721E0A6E0B1E090
S11300C001C01D92A231B207E1F77AD0D8C198CF0E
S11300D08FEF81B98AB914B887E085B90895209162
S11300E00101222354F032B181E090E002C0880F74
S11300F0991F2A95E2F7832B82B9809101018F3FE2
S113010019F482B1807F82B920910101222354F035
S11301103BB181E090E002C0880F991F2A95E2F775
S1130120832B8BB9809101018F3F19F48BB1807FB0
S11301308BB9809101018E3F19F484E08093010111
S11301408091010181508093010108952091000163
S1130150283050F432B181E090E002C0880F991F3A
S11301602A95E2F7832B82B980910001883019F433
S113017082B18F7082B920910001283050F43BB1D4
S113018081E090E002C0880F991F2A95E2F7832B43
S11301908BB980910001883019F48BB18F708BB9C1
S11301A080910001893019F483E0809300018091EB
S11301B000018F5F809300010895C8DF90CF0895F8
S11301C087DF46D1789480910F01811110920F013D
S11301D080910E01882309F480C018990DC0809184
S11301E00A01811109C0809104018C3329F481E052
S11301F080930A0110920401189B0FC080910A0198
S1130200813059F4809104018C3339F410920A013D
S113021012B81BB887E380930401199919C080911F
S11302200901811115C080910301853089F4809101
S11302300601811104C081E08093060102C010927E
S1130240060112B81BB81092030181E080930901E2
S1130250199B0CC080910901813041F48091030104
S1130260853021F410920301109209011A990DC0EE
S113027080910801811109C0809102018C3329F415
S113028081E080930801109202011A9B0FC08091B3
S11302900801813059F4809102018C3339F412B889
S11302A01BB81092080187E3809302018091040136
S11302B08C3318F48F5F809304018091030185309F
S11302C018F48F5F80930301809102018C3318F43A
S11302D08F5F8093020110920E0180910D0188239B
S11302E071F080910A018111FADE80910601811179
S11302F064DF80910801811129DF10920D01809142
S11303000C01811110920C0180910B01882309F4D6
S11303105ACF80910A01811108C08091090181118D
S113032004C080910801882329F0809107018F5F20
S11303308093070180910701833011F41092070123
S113034010920B0140CF1F920F920FB60F921124FF
S11303502F933F934F935F936F937F938F939F93C9
S1130360AF93BF9340911001509111014F5F5F4FC4
S1130370509311014093100181E080930F019A0181
S1130380ADECBCEC6DD096958795969587959C01C0
S1130390220F331F220F331F820F931F4817590751
S11303A019F481E080930E019A01ADECBCEC58D0B5
S11303B09695879596958795969587959C01220F96
S11303C0331F880F991F880F991F880F991F820F59
S11303D0931F4817590719F481E080930D019A017E
S11303E036952795ABE7B4E13BD09695879562E3C4
S11303F0689F9001699F300D11244217530719F427
S113040081E080930C019A013695279536952795BE
S1130410ABE7B4E125D09695879564E6689F900193
S1130420699F300D11244217530719F481E080931A
S11304300B01BF91AF919F918F917F916F915F91CC
S11304404F913F912F910F900FBE0F901F901895D1
S11304508DE084BD8DE487BD82E080936E000895B5
S1130460A29FB001B39FC001A39F700D811D1124F1
S1130470911DB29F700D811D1124911D0895F89452
S1050480FFCFA8
S109048204033C053C00EC
S9030000FC
