:1000000049C0000057C0000055C0000053C00000A8
:1000100051C000004FC000004DC000004BC00000A8
:1000200049C0000047C0000045C0000043C00000B8
:1000300041C000003FC000003DC000003BC00000C8
:10004000D9C0000037C0000035C0000033C0000038
:1000500031C000002FC000002DC000002BC00000E8
:1000600029C0000027C0000025C0000023C00000F8
:1000700021C000001FC000001DC000001BC0000008
:1000800019C0000017C0000015C0000013C0000018
:1000900011C0000011241FBECFEFD0E1DEBFCDBFE5
:1000A00021E0A0E0B1E001C01D92AC30B207E1F761
:1000B00043D03CC1A5CF8FEF81B98AB914B887E08E
:1000C00085B9089540E050E033C0E0910801F09117
:1000D00009019F01ADECBCEC1AD1969587959695D8
:1000E00087959C01220F331F220F331F820F931F0E
:1000F000E817F907B1F01AC0009711F428E022B907
:100100008130910511F424E022B98230910511F477
:1001100022E022B98330910511F421E022B9019641
:1001200002C080E090E08330910534F34F5F5F4F71
:100130004230510554F20895BEDFE1D078948091A9
:10014000070181111092070180910601882309F4AB
:100150003FC0189911C08091020181110DC080919A
:10016000080190910901019690930901809308017B
:10017000A9DF81E080930201189B06C080910201F3
:10018000813011F410920201199907C08091010188
:10019000811103C081E080930101199B06C0809109
:1001A0000101813011F4109201011A9907C0809168
:1001B0000001811103C081E0809300011A9B06C0F9
:1001C00080910001813011F410920001109206011B
:1001D0008091050181111092050180910401811126
:1001E0001092040180910301882309F4A8CF109292
:1001F0000301A5CF1F920F920FB60F9211242F93D8
:100200003F934F935F936F937F938F939F93AF939E
:10021000BF9340910A0150910B014F5F5F4F509384
:100220000B0140930A0181E0809307019A01ADEC34
:10023000BCEC6DD096958795969587959C01220F7D
:10024000331F220F331F820F931F4817590719F4CA
:1002500081E0809306019A01ADECBCEC58D09695F4
:10026000879596958795969587959C01220F331FC4
:10027000880F991F880F991F880F991F820F931F4E
:100280004817590719F481E0809305019A013695C2
:100290002795ABE7B4E13BD09695879562E3689FDD
:1002A0009001699F300D11244217530719F481E022
:1002B000809304019A013695279536952795ABE7EB
:1002C000B4E125D09695879564E6689F9001699F73
:1002D000300D11244217530719F481E08093030174
:1002E000BF91AF919F918F917F916F915F914F914E
:1002F0003F912F910F900FBE0F901F9018958DE09A
:1003000084BD8DE487BD82E080936E000895A29F36
:10031000B001B39FC001A39F700D811D1124911DD9
:10032000B29F700D811D1124911D0895F894FFCF87
:00000001FF
